:020000040800F2
:1000000008090020A1020008012800087724000840
:10001000FD270008C115000801300008000000009D
:100020000000000000000000000000003F28000861
:10003000C5150008000000003D2800080D29000833
:10004000BB020008BB020008BB020008BB0200089C
:10005000BB020008BB020008BB020008BB0200088C
:10006000BB020008BB020008BB020008BB0200087C
:10007000BB020008BB020008BB020008BB0200086C
:10008000BB020008BB020008BB020008BB0200085C
:10009000BB020008BB020008BB020008BB0200084C
:1000A000BB020008BB020008BB020008BB0200083C
:1000B000BB020008BB02000879290008BB02000847
:1000C000BB020008BB020008BB020008BB0200081C
:1000D000BB020008C12F0008BB020008BB020008D9
:1000E000BB020008BB020008BB020008BB020008FC
:1000F000BB020008BB020008BB020008BB020008EC
:10010000BB020008BB020008BB020008BB020008DB
:10011000BB020008BB020008BB020008BB020008CB
:10012000BB020008BB020008BB020008BB020008BB
:10013000BB020008BB020008BB020008BB020008AB
:10014000BB020008BB020008BB020008BB0200089B
:10015000BB020008BB020008BB020008BB0200088B
:10016000BB020008BB020008BB020008BB0200087B
:10017000BB020008BB020008BB0200080000000030
:10018000BB020008BB02000800F002F800F078F89B
:100190000AA090E8000C82448344AAF10107DA45E2
:1001A00001D100F06DF8AFF2090EBAE80F0013F0BC
:1001B000010F18BFFB1A43F001031847B0470000B6
:1001C000D04700000A444FF0000C10F8013B13F038
:1001D000070408BF10F8014B1D1108BF10F8015BA0
:1001E000641E05D010F8016B641E01F8016BF9D193
:1001F00013F0080F1EBF10F8014BAD1C0C1B09D1EA
:100200006D1E58BF01F801CBFAD505E014F8016B5B
:1002100001F8016B6D1EF9D59142D6D370470000ED
:100220000023002400250026103A28BF78C1FBD8FF
:10023000520728BF30C148BF0B607047662904F0E1
:10024000D582642900F0AA80752900F0A78078295A
:1002500000F0E080632900F04384732900F04884B3
:10026000002070471FB504F0BCFA00F057FC0400F2
:100270000020002104F028FAE0601FBD10B510BD79
:1002800000F068FD1146FFF7EDFF03F0D5F800F030
:1002900086FD03B4FFF7F2FF03BC02F0D2FE0000BC
:1002A0000948804709480047FEE7FEE7FEE7FEE70A
:1002B000FEE7FEE7FEE7FEE7FEE7FEE70448054946
:1002C000054A064B704700001529000889010008FF
:1002D0000803002008090020080500200805002068
:1002E000704700000FB4044910B503AA029800F04B
:1002F00003FC10BC5DF814FB0C00002070B5044634
:1003000085690068C10601D5302600E02026C007B7
:1003100007D070BDD4E9012130469047206A401CC7
:1003200020626D1EF6D570BD70B5044685690078F3
:10033000C00707D170BDD4E9012120209047206A71
:10034000401C20626D1EF6D570BD70B50C4605468A
:10035000012A05D02878800600D5EA69002302E04A
:10036000012305E05B1C934202D2E05C0028F9D136
:10037000A869E618C01AA861286A184428622846A5
:10038000FFF7BCFF04E0D5E9012114F8010B904709
:10039000B442F8D32846FFF7C7FF70BD2DE9F041FE
:1003A0000646002410687529314616A510D0AFF313
:1003B0000080002802DA404213A507E031688A076E
:1003C00001D512A502E0490704D511A5012401E0D9
:1003D000AFF3008000210A2206F1240709E0B0FBF8
:1003E000F2FCB0FBF2F302FB1C00303078541846EC
:1003F000491C0028F3D123462A463046BDE8F04187
:1004000000F0FCB8000000002D0000002B000000F0
:100410002000000070B504460D4621461068AFF379
:1004200000802188090502D50F4A7A4402E00E4A6D
:100430007A440E32002104F1240305E000F00F0697
:100440000009965D5E54491C0028F7D120780023EE
:10045000000704D5702D02D009B1022311322046C5
:10046000BDE8704000F0CAB8DA4300002DE9F05F43
:10047000894604464FF0000ADFF874B1FB44C0F827
:1004800020A02046E1688847002874D0252806D09F
:10049000D4E901219047206A401C2062F1E7002640
:1004A0005F462046E16888472028054607DB312D56
:1004B00005D2781910F8200C08B10643F1E7B0070F
:1004C00001D526F00406C4F81CA00027C4F818A023
:1004D0002A2D09D0284602F0ADFD38B304EB870879
:1004E000303DC8F8185019E059F8041B204604EBB9
:1004F00087029161E1688847012F054618D1E069BC
:10050000002820DA26F020061DE0D8F8180000EBBD
:10051000800005EB40003038C8F818002046E1683C
:100520008847054602F086FD0028EED1012F0AD04B
:100530002E2D08D12046E16888477F1C0546022FF2
:1005400046F02006C4DBA069002803DA404246F0EA
:100550000106A061F00701D026F010066C2D0BD02B
:10056000682D09D04C2D39D06A2D35D0742D35D059
:100570007A2D33D016E038E0E1682F4620468847D0
:10058000B842054609D16C2F26D04FF48060E1684F
:10059000064320468847054604E06C2F1AD04FF4E6
:1005A000807006430DB3A5F14100192802D820350B
:1005B00046F400664A462946204626604E46FFF726
:1005C0003DFE80B101280BD0F61D26F0070000F19A
:1005D000080956E74020E4E78020D8E70020D6E766
:1005E00006F104094DE7284652E7206ABDE8F09F6E
:1005F000B043000070477047704770472DE9F047DF
:100600000D4699469246044600F124080168880682
:1006100004D5E06921F01001216000E00120A8422A
:1006200001DD471B00E00027A1697A1902EB0900F0
:10063000081AA0612078C00602D42046FFF75EFEAB
:10064000002608E0D4E901211AF806009047206A44
:10065000401C761C20624E45F4DB2078C0060AD58B
:100660002046FFF74BFE06E0D4E9012130209047F9
:10067000206A401C2062381EA7F10107F4DC07E065
:10068000D4E9012118F805009047206A401C206237
:10069000281EA5F10105F3DC2046FFF745FE207872
:1006A000000602D50220BDE8F0870120FBE7704775
:1006B0002DE9FF4F0C461E464FF0FF378BB0D2E9B5
:1006C0000001DDF860800A908A46C1F30A5505B939
:1006D0003D46002108464FF00000BAF1000F00F43B
:1006E000400005DA00EB80004FF4400101EA5000C1
:1006F0004FEA9059B9F1010F00DDB9460A9850EA66
:100700004A000ED044F61050A5F2FF3545432F1491
:10071000B8F1000F1ED07542291E1EDDC9F100027E
:100720001CE0B8F1010F4FF0000001D0302103E0D0
:10073000F24305E02154401CB042FBDB304600226E
:10074000002121540B99C1F80880C1E900200FB0A5
:10075000BDE8F08FBD1B6D1CDEE74A4600DA69423A
:1007600006A800F07DFA06AB93E8070003AB83E828
:10077000070050460A9900F05BFB8DE80700A0F5E2
:1007800000501F3800900398002D0ADD42F21F012F
:100790004A460844002303A90390684600F0C4FDBC
:1007A00009E0A0F500504A461F38002303A9039032
:1007B000684600F0CEFD8DE807000004000C03D071
:1007C0004FF0FF30410800E01046B8F1000F03D0B1
:1007D0000022009215461EE0751E05D400F0A2F915
:1007E000303262556D1EF9D5B3460122084302D05E
:1007F00000227F1C04E02078302801D100227F1ED7
:10080000002A099784D01DE0112D07DA00F08AF93B
:10081000303262556D1C50EA0102F5D1084302D016
:100820000098C8B10EE00021681E05E0235C625C00
:1008300063542254401E491C8142F7DBAB46A81B7F
:10084000401E0990002004F80B000B98099AC0F88C
:100850000880C0E9002B7AE711264FF0000857E71F
:100860002DE9F04F88460446D21D22F0070191B0D1
:10087000D1E90001CDE90A0102F0C4FB02460B9860
:10088000C00F01D02D2007E02068810701D52B2063
:1008900002E0202101EAC000032A099001D0072AC2
:1008A00005DB03464146204600F09AF90BE120782B
:1008B000800601D5E06900E00620B8F1650F8146A9
:1008C00006D0B8F1660F18D0B8F1670F70D131E0DB
:1008D0000020B9F1110F009001DB112301E009F1B3
:1008E00001030AAA01A90CA8FFF7E2FEDDE90C70DA
:1008F000002609F10105834647E001204B460090A0
:100900004FF000470AAA01A90CA8FFF7D1FEDDE9C4
:100910000DB00C995D46002610B909F101000D18C3
:10092000B9EB050003D4C0F1FF3609F10105A5EBD1
:1009300009002BE0B9F1010F01DA4FF001090020A5
:10094000B9F1110F0090484601DD112300E0034684
:100950000AAA01A90CA8FFF7ABFEDDE90C704D4611
:1009600000268346207800070AD4AB4500DA5D46AE
:1009700001A8012D04DD411911F8011C302907D00F
:100980004F4502DA17F1040F04DA012082460FE026
:100990006D1EEEE7002F02DCED1B3E4403E0781CE9
:1009A000A84200DD7D1CB81B00F1010A4FF0004792
:1009B0002078000703D4AA4501DB4FF0FF3A00215D
:1009C000B7F1004F0DF143088DF8431024D00220F9
:1009D0002B23002F01DA7F422D230A21021EA0F1D2
:1009E000010000DC5FB197FBF1FC97FBF1F201FB2A
:1009F0001C7C17460CF1300C08F801CDEEE7A8F18D
:100A0000010003702188090501D5452100E0652119
:100A1000A0F1010800F8011C09980FA9A1EB080733
:100A2000FF1D00B10120411901EBEA70A1693844B2
:100A3000081A401EA0612078C00602D42046FFF7A5
:100A40005DFC099828B1D4E901219047206A401C37
:100A500020622078C00622D52046FFF74FFC1EE01A
:100A6000002E04DBB34502DD01A8805D00E03020EC
:100A7000D4E901219047206A401C2062761CAAF12B
:100A800001005FEA000A0AD100F048F8C068016876
:100A9000405CD4E901219047206A401C2062281E56
:100AA000A5F10105DCDC07E0D4E9012118F8010B10
:100AB0009047206A401C2062381EA7F10107F3DC32
:100AC0002046FFF731FC032011B041E610B5436921
:100AD00013B1AFF3008001E0FFF737FC012010BD38
:100AE000127800F124010A7000224A700122EDE719
:100AF00011684FF0FF32E9E7074B70B50D467B44B4
:100B000000F05BF80446284600F01CF910B14FF0E5
:100B1000FF3070BD204670BDD728000000487047E8
:100B2000C802002030B5B0F10A024FEA900E71F110
:100B300000034EEA817EB0EB0E0061EB91014FEABB
:100B4000101E4EEA017E10EB0E0041EB11114FEA30
:100B5000102E4EEA016E10EB0E0041EB11214FEA10
:100B6000104E4EEA014E10EB0E0041EB11414018C1
:100B700041F100014FEAD00040EA41704FEAD10153
:100B800010EB80054FEA810444EA907444EB0104C1
:100B90006D1944EB0404521BA3414FF0000348BFFE
:100BA0000A3200D530BD401C41F1000130BD0000CB
:100BB00001694A1C02610878704700B58FB0CDE921
:100BC00001310021059105497944CDE90310114611
:100BD0006846FFF74BFC0FB000BD0000E5FFFFFFCC
:100BE0002DE9F0411F46044603260168072A01F457
:100BF000006004DB08B116A505E016A503E008B106
:100C000015A500E015A521F010002060A069C01E08
:100C1000A0610FB1401EA0612046FFF76FFB4FB1EE
:100C2000D4E9012138469047206A401C2062C01C4C
:100C3000206206E0206AFAE7D4E9012115F8010BE9
:100C40009047761EF8D22046FFF76EFBBDE8F08194
:100C50004E414E006E616E00494E4600696E660060
:100C60002DE9F047814616468AB0354878440DC8CC
:100C70008DE80D0032487844801C03AC0DC884E830
:100C80000D0041F69B300844372190FBF1F290FBB8
:100C9000F1F5A5F1800501FB12041B3C02D564426D
:100CA000012000E00020DFF898A080460027FA44E9
:100CB000AAF1BE0A0EE0E0070AD03246684607EB0A
:100CC000470101230AEB810100F043FB8DE8070097
:100CD00064107F1C002CEED1194F7F44AE3F19E009
:100CE000E80715D007EB04100DF1180A90E80E0084
:100CF0008AE80E00C068F04201D198190890324687
:100D0000012306A903A800F024FB03AB83E8070036
:100D10006D10641C002DE3D14FF00103324669468B
:100D2000B8F1000F03A802D000F0FEFA01E000F0D5
:100D300010FBC9E90001C9F808200AB0BDE8F08736
:100D4000503C0000007B00F0800070470048704776
:100D5000A80200207546FFF7F9FFAE460500694678
:100D6000534620F00700854618B020B5FFF7A6FAD5
:100D7000BDE820404FF000064FF000074FF000089C
:100D80004FF0000B21F00701AC46ACE8C009ACE81D
:100D9000C009ACE8C009ACE8C0098D46704710B581
:100DA0000446AFF300802046BDE81040FFF771BA5B
:100DB0004FF0013C50F8042B51F8043B9A4221D1EA
:100DC000A2EB0C03934313EACC1317D150F8042B76
:100DD00051F8043B9A4215D1A2EB0C03934313EA5A
:100DE000CC130BD150F8042B51F8043B9A4209D193
:100DF000A2EB0C03934313EACC13DBD04FF00000BB
:100E0000704700BFD01A01BAB1FA81F101F01801A0
:100E100022FA01F0CB40C1F12001DBB2C0B2C01A0E
:100E20002CFA01F3D11A914311EAC311E6D17047AC
:100E30005FEA400C08BF91F0000F4FEA8C234FEAA5
:100E4000C12243EA51514FEA1C5018BF00F5F0404F
:100E50004FEA300018BF41F000415FEA6C5C00F0DF
:100E60002980BCF1FF3F08BF40F080407047130C61
:100E700006BF12044FF0100C4FF0000C130E04BF0D
:100E800012020CF1080C130F04BF12010CF1040C38
:100E9000930F04BF92000CF1020CD30F04BF520059
:100EA0000CF1010C11464FF00002A0F11F00A0EB65
:100EB0000C00704711F0004F08BF704731F000413F
:100EC0003FF4D5AF0B0C06BF09044FF0100C4FF0E8
:100ED000000C0B0E04BF09020CF1080C0B0F04BF31
:100EE00009010CF1040C8B0F04BF89000CF1020CFA
:100EF000CB0F04BF49000CF1010CCCF12003A0EB97
:100F00000C0022FA03F302FA0CF241EA030100F1A9
:100F10000100704720F07F4C80EA030023F07F47F8
:100F2000ACEB070303F57C5300F0004003F1FF0333
:100F30002DE980494FEA154B09B44FEA144325EADD
:100F40000B4E24EA03480FF2042606EB1327490848
:100F50003E785FEA320203FB0667C7F5000707FB2E
:100F600006F64FEA54374FEAD64606F1020607FB6B
:100F7000066CCCF1005C4FEA1C472CEA074C07FBDF
:100F800006F40CFB06F504EB15464FEA961634BF43
:100F900000204FF000404FEAD13706FB07FC4FEA34
:100FA0001C4C0CFB0BF7D21B03FB0CF761EB07018E
:100FB0000CFB0EF7B0EB074072EB17420CFB08F787
:100FC00034BFA2EB0742B2EB074261EB17414FEA95
:100FD0000C444FEA910706FB07FC4FEA1C4C0CFB44
:100FE0000BF7B0EBC74072EB573203FB0CF734BF83
:100FF000A2EBC742B2EBC74261EB57310CFB0EF7D5
:10100000B0EBC70072EB57720CFB08F734BFA2EBD2
:10101000C702B2EBC70261EB5771039F4FEA8161D0
:1010200041EA921104EBCC044FEAD1374FEA8262D5
:1010300006FB07FC42EA90124FEA80604FEA1C4C24
:101040000CFB0BF7D21B03FB0CF761EB07010CFB4E
:101050000EF7B0EB074072EB17420CFB08F734BFFA
:10106000A2EB0742B2EB074261EB17414FEA8C5506
:101070004FEA910704EB9C2406FB07FC4FEA1C4C4B
:101080000CFB0BF7B0EBC74072EB573203FB0CF7CE
:1010900034BFA2EBC742B2EBC74261EB57310CFB46
:1010A0000EF7B0EBC70072EB57720CFB08F734BFBA
:1010B000A2EBC702B2EBC70261EB577115EB4C25EF
:1010C0004FEA816141EA92114FEA82624FEAD137D9
:1010D00042EA901206FB07FC44F100044FEA8060EC
:1010E0004FEA1C4C0CFB0BF7D21B03FB0CF761EB1C
:1010F00007010CFB0EF7B0EB074072EB17420CFB3D
:1011000008F734BFA2EB0742B2EB074261EB17418D
:1011100015EB1C154FEA813141EA92414FEA8232C8
:1011200042EA90424FEA80304FEA0C7644F10004E4
:1011300048EA03434EEA0B484FF0000EB2EB080CAE
:1011400071EB030724BF624639464EEB0E0E4FF09B
:10115000000B0018524149414BEB0B0BB2EB080C52
:1011600071EB03077BF1000B24BF624639464EEB5F
:101170000E0E4FF0000B0018524149414BEB0B0B88
:10118000B2EB080C71EB03077BF1000B24BF624646
:1011900039464EEB0E0E51EA020718BF46F0010623
:1011A00016EB0E7655F1000254F1000103D5BDE8AF
:1011B0008901BDE80088BDE88901BDE80048B6198D
:1011C000524141EB0101A3F10103704780807F7E12
:1011D0007D7C7B7A797877767675747372717170AD
:1011E0006F6E6E6D6C6C6B6A6A696868676666655F
:1011F0006464636362616160605F5F5E5E5D5D5CED
:101200005C5B5B5A5A59595858575756565555555D
:101210005454535352525251515050504F4F4F4EBD
:101220004E4D4D4D4C4C4C4B4B4B4A4A4A4949490B
:10123000484848474747474646464545454444444D
:10124000444343434342424242414141002B9C4676
:1012500030D477002BD01CB54FEA370703B44FF0DA
:1012600010004FF01001BAF1000F06D0BCF1000FD2
:10127000DCBF40F0080040F008014FF000000FBC58
:10128000BDE810400BF1010BBBF1010F08BF5FEA95
:10129000170722BF12F1010211F101014FF00041C5
:1012A00043F1000300F0004043EA00007047F9D327
:1012B0005708D0E746EA064613F1400F4FEA1646B4
:1012C0001FDD13F1200FDFBF16430A460021203334
:1012D0005B42BED0C3F1200746EA064602FA07F792
:1012E0004FEA164646EA0706C3F1200722FA03F240
:1012F00001FA07F721FA03F14FF0000342EA07026F
:10130000A7E746EA020646EA06464FEA164646EAD6
:101310000106BCBF46EA0646360C4FF000034FF00C
:1013200000024FF0000194E72DE9804C9A46934665
:1013300070B491E8380007C831EA400C48BF34EA7D
:10134000430C03D5FFF7E6FDFFF780FFF0BCBDE8D7
:10135000008C2DE9804C9A46934670B491E8380091
:1013600007C810F0804F08BF13F0804F03D100F082
:1013700005F8FFF76BFFF0BCBDE8008C20F07F475D
:1013800080EA030023F07F4C07EB0C03A3F57C53AA
:1013900000F00040A3F1FE0392F0000F00F0B380D4
:1013A00095F0000F00F077802DE901494FEA1140D8
:1013B0004FEA144621EA004800FB06FC24EA0647EF
:1013C00008FB06F607FB08F800FB07F718EB0648D2
:1013D0004CEB164C4FEA124B18EB07484FEA1546F8
:1013E0004CEB174022EA0B4E0BFB06FC25EA0647A6
:1013F0000EFB06F607FB0EFE0BFB07F71EEB064E79
:101400004CEB164C4FF000061EEB074E4CEB174B07
:1014100018EB0B0840F1000018EB0E0B58EB00081E
:1014200040F100008F1A4FF000013CBFC943661B1A
:1014300014BFB5EB040C00213CBFC943F61B4FEAB7
:1014400017444EEA8E0E27EA04454FEA1C4704FB78
:1014500007622CEA074C05FB07F70CFB05F604FBBB
:101460000CFC16EB074642EB174216EB0C4642EB20
:101470001C421BEB060658EB0202414146EA9E065F
:1014800001D5BDE80189B619524141EB0101A3F133
:101490000103BDE801894FEA14454FEA114724EAE8
:1014A000054621EA074C05FB07F406FB07F70CFB92
:1014B00006F105FB0CFC11EB074144EB17444FEA26
:1014C000124711EB0C4144EB1C4422EA074C05FB8C
:1014D00007F206FB07F70CFB06F605FB0CFC16EB08
:1014E000074642EB174216EB0C4642EB1C456A18C6
:1014F00054F1000148BF7047B619524141EB010158
:10150000A3F10103704795F0000F37D04FEA114265
:101510004FEA144721EA024624EA074C02FB07F18E
:1015200006FB07F70CFB06F402FB0CFC14EB07446C
:1015300041EB17414FEA154714EB0C4441EB1C41BA
:1015400025EA074C02FB07F506FB07F70CFB06F63E
:1015500002FB0CFC16EB074645EB174516EB0C4659
:1015600045EB1C42121951F1000148BF7047B619F2
:10157000524141EB0101A3F1010370474FEA1445C9
:101580004FEA114724EA054621EA074C05FB07F11B
:1015900006FB07F70CFB06F24FF0000605FB0CFC00
:1015A00012EB074241EB174112EB0C4251EB1C418D
:1015B00048BF7047921841EB0101A3F10103704746
:1015C00000BFFEE77047014691F83500022803D0BE
:1015D0008020486501207047052081F835000868A3
:1015E000006820F001000A6810600020F3E70000A6
:1015F000F8B502460B460025002400200021DCE05F
:10160000012606FA01F51E6806EA0504AC4273D10C
:101610005E68022E02D05E68122E13D1CF0802F14E
:10162000200656F827004E07F70E0F26BE40B0439F
:101630004F07FF0E1E69BE403043CF0802F120065F
:1016400046F8270010684F000326BE40B0431E79BD
:1016500006F003064F00BE40304310605E68012E66
:1016600008D05E68022E05D05E68112E02D05E683A
:10167000122E13D190684F000326BE40B0434F0096
:10168000DE68BE4030439060506801268E40B04313
:101690001E79C6F300168E4030435060D0684F006C
:1016A0000326BE40B0434F009E68BE403043D0602A
:1016B0005E6806F08056B6F1805F7DD100BF0026DF
:1016C0000096404E366846F480463E4F3E603E46A9
:1016D000366806F48046009600BF00BF3A4E8F0879
:1016E00056F827008E07370F0F26BE40B043374EFF
:1016F000B24202D1002624E05EE0354EB24201D172
:1017000001261EE0334EB24201D1022619E0324ECC
:10171000B24201D1032614E0304EB24201D1042678
:101720000FE02F4EB24201D105260AE02D4EB24203
:1017300001D1062605E02C4EB24201D1072600E079
:1017400008268F073F0FBE4030431F4E8F0846F8D4
:101750002700264E3068A0435E6806F48036B6F552
:10176000803F00D12043214E3060361D3068A043B9
:101770005E6806F40036B6F5003F00D120431B4EEC
:10178000361D3060361D3068A0435E6806F4801652
:10179000B6F5801F00D12043144E08363060361D48
:1017A0003068A0435E6806F40016B6F5001F00D14D
:1017B00020430E4E0C363060491C1029FFF420AF38
:1017C000F8BD0000443802400838014000000240E3
:1017D0000004024000080240000C024000100240D9
:1017E0000014024000180240001C0240003C01406E
:1017F00001480068000C7047002004E001480068C0
:10180000704700000400002002480068401C0149A5
:10181000086070470400002010B50A48006840F4D2
:101820000070084908600846006840F4806008605D
:10183000052000F069F80F2000F006F800F018F815
:10184000002010BD003C024070B504460748006807
:101850004FF47A71B0FBF1F5284600F017FC002236
:101860002146501E00F012F8002070BD000000203C
:10187000704700BF00F01F02012191404209920011
:1018800002F1E022C2F8001100BF70472DE9F05FBD
:1018900080460D461646002700F0B4FF074639463D
:1018A0002A46334601F00700C0F1070ABAF1040FD7
:1018B00002D94FF0040A01E0C0F1070AD14600F155
:1018C000040ABAF1070F02D24FF0000A01E0A0F1BA
:1018D000030AD4464FF0010A0AFA09FAAAF1010AEA
:1018E0000AEA020A0AFA0CFA4FF0010B0BFA0CFB97
:1018F000ABF1010B0BEA030B4AEA0B04214640460D
:1019000000F088FFBDE8F09F00BF00F00702064B23
:1019100019684FF6FF031940044B0B4343EA0221B9
:10192000014B196000BF70470CED00E00000FA05A4
:1019300070B504460D4600266D48006800F00F00A3
:10194000A84209D26A490D700846006800F00F00ED
:10195000A84201D0012070BD207800F002000228CA
:1019600007D16448006820F0F000A168084361498D
:101970000860207800F00100002877D06068012816
:1019800007D15C4808380068C0F34040B8B901206E
:10199000E1E76068022802D06068032807D1554853
:1019A00008380068C0F3406048B90120D3E75148C7
:1019B00008380068C0F3400008B90120CBE74D4863
:1019C000006820F00300616808434A490860FFF797
:1019D00015FF06466068012810D108E0FFF70EFFEA
:1019E000801B41F28831884201D90320B3E7414886
:1019F000006800F00C000428F0D137E0606802288D
:101A000010D108E0FFF7FAFE801B41F288318842CE
:101A100001D903209FE73748006800F00C00082830
:101A2000F0D123E06068032810D108E0FFF7E6FE5C
:101A3000801B41F28831884201D903208BE72D4871
:101A4000006800F00C000C28F0D10FE008E0FFF770
:101A5000D5FE801B41F28831884201D903207AE704
:101A60002448006800F00C000028F0D120480068ED
:101A700000F00F00A84209D91D490D700846006802
:101A800000F00F00A84201D0012064E7207800F0A8
:101A90000400042807D11748006820F4E050E168EA
:101AA000084314490860207800F00800082808D18D
:101AB0001048006820F46040216940EAC1000D49E7
:101AC000086000F04FF80B49096801F0F001F022BE
:101AD00092FAA2F2B2FA82F2D140074A515CC840AF
:101AE000064908600F20FFF7AFFE002033E7000033
:101AF000003C024008380240F04700080000002087
:101B000001480068704700000000002000B5FFF7A2
:101B1000F7FF0749096801F4E0514FF4E05292FAE7
:101B2000A2F2B2FA82F2D140024A515CC84000BD32
:101B3000083802400048000800B5FFF7E1FF0749F8
:101B4000096801F460414FF4604292FAA2F2B2FADD
:101B500082F2D140024A515CC84000BD08380240C0
:101B60000048000870B50021002200230020274C07
:101B7000246804F00C0424B1042C04D0082C41D1B6
:101B800003E0234840E023483EE0204C241F246823
:101B900004F03F011D4C241F246804F4800484B128
:101BA0001C4CB4FBF1F5194C241F246847F6C07691
:101BB000344096FAA6F6B6FA86F6F44005FB04F22F
:101BC0000FE0134CB4FBF1F5104C241F246847F6CA
:101BD000C076344096FAA6F6B6FA86F6F44005FBCF
:101BE00004F20A4C241F246804F440344FF44035B6
:101BF00095FAA5F5B5FA85F5EC40641C6300B2FBD7
:101C0000F3F001E0024800BF00BF70BD0838024099
:101C10000024F40000127A0038B50446002520782C
:101C200000F00100002874D0F748006800F00C00B4
:101C300004280DD0F448006800F00C00082813D1E7
:101C4000F148001F006800F48000B0F5800F0BD150
:101C5000ED4808380068C0F34040002859D060685B
:101C6000002856D1012038BD00BF6068B0F5803F24
:101C700008D1E5480838006840F48030E249083966
:101C800008601EE06068B0F5A02F0DD1DE4808386E
:101C9000006840F48020DC49083908600846006884
:101CA00040F4803008600CE0D7480838006820F421
:101CB0008030D549083908600846006820F4802043
:101CC000086000BF606890B1FFF798FD054606E028
:101CD000FFF794FD401B642801D90320C3E7CA48DD
:101CE00008380068C0F340400028F1D011E0FFF749
:101CF00085FD054606E0FFF781FD401B642801D9FC
:101D00000320B0E7C04808380068C0F3404000280E
:101D1000F1D1207800F00200022869D1BA480068A9
:101D200000F00C0058B1B848006800F00C0008281A
:101D300021D1B548001F006800F48000D8B9B2482E
:101D400008380068C0F3400020B1E068012801D0E5
:101D5000012088E7AC480838006820F0F800F82235
:101D600092FAA2F2B2FA82F2216991400843A6499E
:101D7000083908603CE0E06828B30120A349086006
:101D8000FFF73CFD054606E0FFF738FD401B022843
:101D900001D9032067E79C4808380068C0F3400079
:101DA0000028F1D098480838006820F0F800F822A0
:101DB00092FAA2F2B2FA82F2216991400843924962
:101DC0000839086014E0002090490860FFF716FD0C
:101DD000054606E0FFF712FD401B022801D903204B
:101DE00041E7894808380068C0F340000028F1D175
:101DF000207800F0080008282CD16069A8B10120E3
:101E000083490860FFF7FAFC054606E0FFF7F6FC99
:101E1000401B022801D9032025E77B486C3000686D
:101E2000C0F340000028F1D014E000207849086099
:101E3000FFF7E4FC054606E0FFF7E0FC401B022844
:101E400001D903200FE770486C300068C0F34000F0
:101E50000028F1D1207800F0040004287FD100BFD1
:101E60000020009068483830006840F08050664993
:101E7000383108600846006800F08050009000BFCC
:101E800000BF6448006840F4807062490860FFF752
:101E9000B5FC054606E0FFF7B1FC401B022801D95E
:101EA0000320E0E65B48006800F480700028F2D070
:101EB00000BFA068012808D153486830006840F08E
:101EC00001005149683108601DE0A06805280DD166
:101ED0004D486830006840F004004B4968310860A4
:101EE0000846006840F0010008600CE04648683091
:101EF000006820F001004449683108600846006825
:101F000020F00400086000BFA068A0B1FFF776FCD5
:101F1000054608E0FFF772FC401B41F28831884219
:101F200001D903209FE6384868300068C0F34000BC
:101F30000028EFD013E0FFF761FC054608E0FFF74B
:101F40005DFC401B41F28831884201D903208AE6BA
:101F50002D4868300068C0F340000028EFD1A06928
:101F6000F0B32948006800F00C00082871D0A0697F
:101F7000022858D1002025490866FFF73FFC054696
:101F800006E0FFF73BFC401B022801D903206AE66C
:101F90001D4808380068C0F340600028F1D1D4E93A
:101FA0000701084347F6C07292FAA2F2B2FA82F22F
:101FB000616A914008430122A16AC2EB51014FF4CA
:101FC000403292FAA2F2B2FA82F2914008434FF004
:101FD000706292FAA2F2B2FA82F2E16A914000E0F3
:101FE00039E008430849091F0860012007490866CD
:101FF000FFF704FC05460FE0FFF700FC401B02283A
:102000000AD903202FE600000838024000004742AA
:10201000800E47420070004010480068C0F34060E6
:102020000028E9D017E000200D490866FFF7E6FB1D
:10203000054606E0FFF7E2FB401B022801D903201A
:1020400011E606480068C0F340600028F2D102E0C3
:10205000FFE7012007E6002005E600000038024007
:1020600000004742042808D14FF0E021096941F0FF
:1020700004014FF0E022116107E04FF0E02109690F
:1020800021F004014FF0E0221161704770B5044661
:102090002546681EB0F1807F01D301200FE0681E45
:1020A0004FF0E02148610F214FF0FF3000F0B2FB0C
:1020B00000204FF0E021886107200861002070BDFA
:1020C00010B504460CB9012010BD94F8390028B9A8
:1020D000002084F83800204600F00CF8022084F834
:1020E0003900211D206800F069FC012084F83900C6
:1020F0000020E9E7704701460868C06840F0010029
:102100000A68D0600868006840F001000A68106042
:1021100000207047704701460022002391F83920C3
:1021200091F83A3042EA0300704700002DE9F04789
:102130000446206805682068C668206847694FF033
:102140000008C14605F00F08B8F1000F0AD105F0EC
:10215000200038B106F0200020B1204600F0FAFC43
:10216000BDE8F087B8F1000F6DD007F0010018B995
:1021700006F49070002866D005F0010030B106F436
:10218000807018B1E06B40F00100E06305F00400DE
:1021900030B107F0010018B1E06B40F00200E063DD
:1021A00005F0020030B107F0010018B1E06B40F01B
:1021B0000400E06305F0080030B107F0010018B139
:1021C000E06B40F00800E063E06B68B305F02000CE
:1021D00028B106F0200010B1204600F0BBFC2068BA
:1021E0004069C0F38019E06B00F0080010B9B9F144
:1021F000000F22D0204600F08DFC2068406900F0DE
:102200004000B0B12068406920F04000216848617A
:10221000606B50B11748616B0865606BFFF7D3F9CD
:1022200010B1606B016D88470CE02046FFF772FF2C
:1022300008E02046FFF76EFF04E02046FFF76AFF44
:102240000020E0638CE705F0800030B106F08000EC
:1022500018B1204600F080FE82E705F0400030B162
:1022600006F0400018B1204600F064FC78E700BF9B
:1022700076E70000012B000810B504460CB90120D8
:1022800010BDA06900B100E000BF94F8390028B982
:10229000002084F83800204600F028F8242084F834
:1022A00039002068C06820F400502168C8602046CA
:1022B00000F09EFC2068006920F4904021680861CD
:1022C0002068406920F02A00216848612068C068C1
:1022D00040F400502168C8600020E063202084F8AA
:1022E000390084F83A000020CAE7000010B586B033
:1022F00004462249206888423ED100BF0020009059
:102300001F48006840F001001D4908600846006849
:1023100000F00100009000BF00BF00BF002000904F
:1023200017481430006840F0100015491431086057
:102330000846006800F01000009000BF00BF48157C
:1023400001900220029001200390022004900720B7
:10235000059001A90B48FFF74BF94FF480600190FD
:1023600001A90848FFF744F92520FFF782FA032264
:1023700011462520FFF78AFA06B010BD0010014073
:10238000303802400000024010B5034693F83A008E
:10239000202829D101B10AB9012010BD00BF93F84E
:1023A0003800012801D10220F7E7012083F8380026
:1023B00000BF99629A85DA850020D863222083F8CD
:1023C0003A0000BF002083F8380000BF1868406959
:1023D00040F001001C6860611868C06840F49070AB
:1023E0001C68E0600020D8E70220D6E71D4A01689B
:1023F000914236D11C49098801F4004189BB1A4930
:10240000098801F4804171B1184909780A2903D07B
:102410000021154A118024E01349098841F4004144
:10242000114A11801DE0114909780D2906D10E4984
:10243000098841F480410C4A118012E00B49097867
:10244000094A1288C2F30D02094B995406490988BA
:10245000491C054A118011460988C72901DD002160
:102460001180704700100140100000201200002071
:1024700064010020704700BFFEE710B500F02AF8A5
:1024800010BD000010B500200F4908600F4800681B
:1024900020F030000D4908600846006840F0100048
:1024A000086000200A49C1F88802022000F070FF8D
:1024B000012005490860022000F06AFF002004495D
:1024C000C1F8840210BD00008402414200080240AD
:1024D0000000414200B587B000BF002001901048C5
:1024E000006840F004000E4908600846006800F0EB
:1024F0000400019000BF00BF06200290012003905D
:1025000004900220059002A90648FFF771F8012007
:10251000054908600549C1F8840207B000BD000004
:102520003038024000080240880241420000414227
:1025300010B500200F4908600F48006820F03000F7
:102540000D4908600846006840F01000086001204E
:102550000A49C1F88802022000F01AFF012005494B
:102560000860022000F014FF00200449C1F8840232
:1025700010BD0000840241420008024000004142B8
:1025800070B5054600241648006820F03000144954
:102590000860084600680860002616E0002011491F
:1025A0000860022000F0F4FE01200F49C1F8840207
:1025B0006006040E0B487C38006808B1601CC4B289
:1025C000012000F0E5FE701CC6B2082EE6DB15B94E
:1025D000FFF7AEFF01E0FFF755FF204670BD00009A
:1025E0000008024084024142000041422DE9F041CE
:1025F00006460F4614461D4600F060F87106080EA8
:1026000000F028F800F0A6F8384600F023F800F0B3
:10261000A1F800F053F8012101EB4601C8B200F027
:1026200019F800F097F80DE0012C04D10020FFF715
:10263000A7FF287003E00120FFF7A2FF28706D1CA0
:10264000601E84B2002CEFD100F05EF80020BDE8DF
:10265000F081000070B504461548006820F0300095
:10266000134908600846006840F010000860002028
:1026700010490860002517E0E0090E49091D0860AF
:102680006006040E022000F083FE01200A49C1F812
:102690008402022000F07CFE00200649086002202F
:1026A00000F076FE681CC5B2082DE5DB70BD0000A9
:1026B00000080240840241420000414210B50F4828
:1026C000006820F030000D4908600846006840F0BE
:1026D0001000086001200A4908600A49C1F8840214
:1026E000042000F055FE002005490860042000F099
:1026F0004FFE00200349C1F8840210BD00080240CB
:10270000880241420000414210B50F48006820F0A5
:1027100030000D4908600846006840F0100008606D
:1027200000200A4908600A49C1F88802042000F024
:102730002FFE0120054908600549C1F888020420E0
:1027400000F026FE10BD0000000802408402414255
:102750000000414210B500241348006820F030000A
:102760001149086008460068086001200F490860A8
:1027700000F00EFE01200E49C1F8840200F008FEB0
:1027800007E0601CC4B2FA2C03DDFFF7BDFF012097
:1027900010BD0648803800680028F2D10349091F9F
:1027A000086000BFF4E700000008024088024142D0
:1027B000000041422DE9F04105460E4617461C46F1
:1027C000FFF77CFF6906080EFFF744FFFFF7C2FF23
:1027D0003046FFF73FFFFFF7BDFF05E014F8010BA0
:1027E000FFF738FFFFF7B6FF381EA7F101018FB2E0
:1027F000F4D1FFF789FF0020BDE8F08100BFFEE7BC
:102800007047000002480068C0F3022070470000D3
:102810000CED00E010B5002807DA0A07140E054A8F
:1028200000F00F031B1FD45403E00A07130E024AE3
:10283000135410BD18ED00E000E400E0704770474D
:102840002DE9F04192B00446884615461E46002701
:1028500000BF002000902A48006840F080502849BE
:1028600008600846006800F08050009000BF00BF7C
:1028700000BF002000902348006840F480402149B8
:1028800008600846006800F48040009000BF00BF68
:10289000012006900004079002200C9041050D9144
:1028A000CDF838800F941095119606A8FFF7B4F96B
:1028B00007460FB100BFFEE70F20019002200290F3
:1028C000002003904FF4A05004904FF480500590E6
:1028D000052101A8FFF72CF807460FB100BFFEE75E
:1028E000FEF786FF41F20101884205D106480068E3
:1028F00040F480700449086012B0BDE8F081000027
:102900004038024000700040003C024010B5FEF725
:102910007BFF10BD1448006840F470001249086045
:102920001248006840F001001049086000200F497B
:10293000083108600D4800680D4908400B490860DF
:102940000C48091D0860081F006820F48020091F3A
:102950000860002005490C3108604FF00060024912
:10296000803908607047000088ED00E000380240C0
:10297000FFFFF6FE1030002410B50E480068C06856
:1029800000F0010078B10C4908698047002009492E
:102990000968486200BF642006490968C86264216A
:1029A0000448C16000BF6FF0010002490968086176
:1029B00010BD00006C0200205800002000220268B8
:1029C0002C4B98420ED0B0F1804F0BD02A4B98423E
:1029D00008D02A4B984205D0294B984202D0294B67
:1029E000984201D1012300E000231BB122F07002C4
:1029F0004B681A431F4B984220D0B0F1804F1DD036
:102A00001D4B98421AD01D4B984217D01C4B984230
:102A100014D01C4B984211D01B4B98420ED01B4B2C
:102A200098420BD01A4B984208D01A4B984205D0C6
:102A3000194B984202D0194B984201D1012300E072
:102A400000231BB122F44072CB681A4302608B68EA
:102A5000C3620B688362074B984202D0094B9842CD
:102A600001D1012300E000230BB10B6903630123B3
:102A7000436170470000014000040040000800402E
:102A8000000C0040000401400040014000440140AF
:102A90000048014000180040001C00400020004099
:102AA00038B505460C4600BF00200090114800686C
:102AB00040F004000F4908600846006800F0040078
:102AC000009000BF00BF032211461E20FEF7DEFE6D
:102AD0001E20FEF7CEFE08480849086008464460FC
:102AE00000218160C5600161FFF7EAFA0348FFF742
:102AF00002FB38BD40380240000800406C02002054
:102B000070B50546AC6B0020E085E0842046FFF7F9
:102B100001FB70BD0168C96821F490710268D16041
:102B20000168496921F0010102685161202180F8A2
:102B30003A10704710B504462068C06820F0400085
:102B40002168C860202084F839002046FFF792FCF5
:102B5000002010BD70B5044694F83A00222844D1F4
:102B6000A068B0F5805F13D1A56A206940B92068DC
:102B70004068C0F308002880A06A801CA06219E0A9
:102B800020684068C0B22880A06A401CA06211E0A2
:102B9000206938B920684068C1B2A26A501CA0629E
:102BA000117007E02068406800F07F01A26A501CA5
:102BB000A0621170E08D401E80B2E08598B9206857
:102BC000C06820F490702168C8602068406920F0D7
:102BD000010021684861202084F83A002046FFF770
:102BE00005FC002070BD0020FCE70220FAE7000091
:102BF0002DE9F041044600252068056925F440557B
:102C0000E0680543206805612068C56849F20C60EA
:102C100085432169A068084361690843E169084365
:102C200005432068C5602068456925F44075A069A2
:102C3000054320684561E069B0F5004F7ED1C44985
:102C40002068884203D0C349206888425DD1FEF7DE
:102C500073FF00EBC00101EB001061684900B0FB9D
:102C6000F1F06421B0FBF1F00601FEF765FF00EB27
:102C7000C00101EB001061684900B0FBF1F7FEF7FD
:102C80005BFF00EBC00101EB001061684900B0FB85
:102C9000F1F06421B0FBF1F000EBC00101EB00109A
:102CA000A7EB8000322101EBC0006421B0FBF1F002
:102CB00000F0F80006EB4006FEF73EFF00EBC00117
:102CC00001EB001061684900B0FBF1F7FEF734FF3B
:102CD00000EBC00101EB001061684900B0FBF1F0AE
:102CE0006421B0FBF1F000EBC00101EB0010A7EB99
:102CF0008000322101EBC0006421B0FBF1F000F054
:102D0000070030442168886020E1FEF7FFFE00EBF9
:102D1000C00101EB001061684900B0FBF1F06421D3
:102D2000B0FBF1F00601FEF7F1FE00EBC00101EB94
:102D3000001061684900B0FBF1F700E045E0FEF7E4
:102D4000E5FE00EBC00101EB001061684900B0FB3B
:102D5000F1F06421B0FBF1F000EBC00101EB0010D9
:102D6000A7EB8000322101EBC0006421B0FBF1F041
:102D700000F0F80006EB4006FEF7C8FE00EBC001CD
:102D800001EB001061684900B0FBF1F7FEF7BEFEF1
:102D900000EBC00101EB001061684900B0FBF1F0ED
:102DA0006421B0FBF1F000EBC00101EB0010A7EBD8
:102DB0008000322101EBC0006421B0FBF1F000F093
:102DC0000700304421688860C0E06149206888427B
:102DD00003D06049206888425CD1FEF7ADFE00EB6D
:102DE000C00101EB001061688900B0FBF1F6FEF74D
:102DF000A3FE00EBC00101EB001061688900B0FB8D
:102E0000F1F06421B0FBF1F000EBC00101EB001028
:102E1000A6EB8000322101EB00106421B0FBF1F041
:102E200000F0F006FEF788FE00EBC00101EB001099
:102E300061688900B0FBF1F06421B0FBF1F006EBB2
:102E40000016FEF779FE00EBC00101EB001061688F
:102E50008900B0FBF1F7FEF76FFE00EBC00101EB5C
:102E6000001061688900B0FBF1F06421B0FBF1F063
:102E700000EBC00101EB0010A7EB8000322101EB59
:102E800000106421B0FBF1F000F00F003044216825
:102E900088605BE0FEF73AFE00EBC00101EB00103A
:102EA00061688900B0FBF1F6FEF730FE00EBC0016F
:102EB00001EB001061688900B0FBF1F06421B0FB08
:102EC000F1F000EBC00101EB0010A6EB8000322115
:102ED00001EB00106421B0FBF1F000F0F006FEF70A
:102EE00015FE00EBC00101EB001061688900B0FB2A
:102EF000F1F06421B0FBF1F006EB0016FEF706FEE0
:102F000000EBC00101EB001061688900B0FBF1F734
:102F1000FEF7FCFD00EBC00101EB001061688900C9
:102F2000B0FBF1F06421B0FBF1F000EBC00101EB6C
:102F30000010A7EB8000322101EB00106421B0FBF0
:102F4000F1F000F00F00304421688860BDE8F081A6
:102F50000010014000140140014691F83900212879
:102F60002CD18868B0F5805F0FD10A6A1088C0F351
:102F700008000B685860086918B9086A801C086264
:102F800009E0086A401C086205E00B6A581C0862E8
:102F900018780B685860C88C401E80B2C88458B935
:102FA0000868C06820F080000B68D8600868C068B6
:102FB00040F040000B68D860002070470220FCE71A
:102FC00010B500240C48FFF7B1F800BF01E0641C05
:102FD00000BF0948FFF79FF82028F8D100BF002460
:102FE00001E0641C00BF012204490348FFF7CCF94B
:102FF0000028F6D100BF10BD2C02002012000020D6
:1030000000BFFEE703B401984100009850EAC120D8
:1030100018BF04204A0D18BF40F0010040F2FF72B3
:10302000B2EB515F08BF40F00200012808BF052045
:1030300002B0704730380A2801D2012070470020C2
:10304000704700BF70470000B8B101280FD00228B8
:1030500007D0032817D19FED0E0A0E4981ED000A13
:1030600011E09FED0D0A0B4981ED000A0BE09FED89
:103070000B0A084981ED000A05E09FED090A0549A0
:1030800081ED000A00BF00BF024991ED000A7047C0
:1030900000007A3D140000200000FA3D00007A3E56
:1030A0000000FA3E082835D2DFE800F02E28221C66
:1030B00016100A049FED1A0A1A4981ED000A29E048
:1030C0009FED190A174981ED000A23E09FED170AC9
:1030D000144981ED000A1DE09FED150A114981EDAB
:1030E000000A17E09FED130A0E4981ED000A11E076
:1030F0009FED110A0B4981ED000A0BE09FED0F0ACD
:10310000084981ED000A05E09FED0D0A054981EDB2
:10311000000A00BF00BF034991ED000A704700009C
:103120000000F2391800002000007A3A0000FA3A54
:1031300000007A3B0000FA3B00007A3C0000FA3CB9
:1031400000007A3D10B5FFF798F900F001F810BDC6
:1031500010B500240021762000F064F9012111202F
:1031600000F060F9642000F007F9752000F042F9E2
:103170000446214622A0FDF7B5F80021762000F094
:1031800051F90121112000F04DF9642000F0F4F80C
:10319000472C32D10220FFF757FF0021762000F0A4
:1031A00041F9402444F008042146502000F03AF947
:1031B0000120FFF777FF0021762000F033F920246B
:1031C00044F0080421464F2000F02CF9002176201D
:1031D00000F028F94E2000F00DF9044624F02004F8
:1031E00044F00C0444F0030421464E2000F01AF988
:1031F000012000F0C1F8002010BD4FF0FF30FBE7C8
:103200007265675F76616C3A25640A0030B587B0F5
:1032100004460D4600200490059006900C2204A957
:103220001F2000F0F4F89DF811009DF8101040EAFE
:10323000012000B2ADF808009DF813009DF81210AF
:1032400040EA012000B2ADF80A009DF815009DF893
:10325000141040EA012000B2ADF80C009DF81700F0
:103260009DF8161040EA012000B2ADF800009DF86C
:1032700019009DF8181040EA012000B2ADF80200D4
:103280009DF81B009DF81A1040EA012000B2ADF82D
:103290000400BDF90800401C38B9BDF90A00401C03
:1032A00018B9BDF90C00401C20B1BDF9080010F59B
:1032B000004F02D1012007B030BDBDF9080000EE7B
:1032C000100AB8EEC00A2548D0ED000A20EE200A08
:1032D00084ED000ABDF90A0000EE100AB8EEC00A3B
:1032E0001E48D0ED000A20EE200A84ED010ABDF947
:1032F0000C0000EE100AB8EEC00A1848D0ED000A23
:1033000020EE200A84ED020ABDF9000000EE100A4A
:10331000B8EEC00A1248D0ED000A20EE200A85ED72
:10332000000ABDF9020000EE100AB8EEC00A0C480F
:10333000D0ED000A20EE200A85ED010ABDF9040057
:1033400000EE100AB8EEC00A0548D0ED000A20EEE3
:10335000200A85ED020A0020ADE7000014000020DD
:103360001800002010B504460420FEF77BFE01483B
:10337000046010BD0800002030B50446002504E0BC
:103380004FF47A7000F004F86D1CA542F8D330BDFC
:1033900070B5034600224FF0E02675690D4E366881
:1033A00003FB06F44FF0E026B16910E04FF0E02691
:1033B000B06988420BD0884202D20E1A324402E031
:1033C0002E1A0E4432440146A24200D300E0EDE73B
:1033D00000BF70BD0800002000BF054A126802F05F
:1033E0004002002AF9D0C2B2014B5A607047000077
:1033F0000010014038B50446002000906B460122C1
:1034000021466920FFF7F2F89DF8000038BD70B53D
:1034100004460D4616462B46324621466920FFF7E4
:10342000E5F870BD13B5044601AB012221466920C1
:10343000FFF7C0F900201CBD2DED0C8B8AB0FEF704
:10344000EBF90723022208214FF4A870FFF7F8F9DF
:10345000A820FFF787FF4FF4E13000F06FF8FFF787
:1034600071FE51E029492A48FFF7D0FE274890ED28
:10347000020A10EE101A084601F042F941EC180B4E
:10348000224890ED010A10EE101A084601F038F9B2
:1034900041EC190B1D4890ED000A10EE101A084679
:1034A00001F02EF941EC1A0B194890ED020A10EECA
:1034B000101A084601F024F941EC1B0B144890ED5A
:1034C000010A10EE101A084601F01AF941EC1C0B23
:1034D0000F4890ED000A10EE101A084601F010F99E
:1034E00041EC1D0B8DED088B8DED069B8DED04AB36
:1034F0008DED02BB8DED00CB53EC1D2B05A0FCF731
:10350000F1FE3220FFF738FFACE700005801002041
:103510004C010020252E326609252E326609252E03
:10352000326609252E326609252E326609252E328D
:10353000660D0A00014608687047000010B5044691
:1035400009480A4908600846446000218160C1605A
:10355000016181610C214161FEF78EFE0122044967
:103560000248FEF711FF10BD001001402C020020A0
:103570001200002030B595B0054613AB12AA09A978
:10358000284600F03FFA044614B1204615B030BD7D
:103590000020149026E0224909689DF8502001EB94
:1035A000C20113AB11AA486801A900F02BFA044626
:1035B0000CB12046EAE709A901A800F0E1FC60B9D6
:1035C0009DF844009DF84810884201DD0220DDE7A7
:1035D0009DF85000124988750AE09DF85000401C83
:1035E000C0B214900E48007D9DF850108842D2DC85
:1035F00000BF0B48007D9DF85010884201D1042087
:10360000C4E714A9284600F0DDFA04460CB12046B0
:10361000BCE79DF85000024948750020B6E700005D
:10362000580000202DE9F0419AB09C48847D007D2F
:10363000A04202DC1AB0BDE8F0819849096801EBAC
:10364000C40106AB07AA486808A900F0DBF908A97D
:1036500093A0FCF747FE002644E09048008B012130
:10366000B1400840D8B122218FA0FCF73BFE304684
:1036700000F02EFB89492431471839468BA0FCF70E
:1036800031FE222188A0FCF72DFE304600F020FB01
:1036900082492431084410A941F8260018E0304638
:1036A00000F016FB7D492431085810A941F8260086
:1036B0007A48C07D30B910A850F826107CA0FCF7DD
:1036C00011FE05E010A850F826107AA0FCF70AFEBB
:1036D0009DF81C00401EB04202D078A0FCF702FE0C
:1036E000701CC6B29DF81C008642B6DB74A0FCF7C5
:1036F000F9FD00F03FFB6948407D0B280DD2DFE863
:1037000000F0060D151E27323F4E5F728700634999
:10371000096851F834008047054690E05F4A126816
:1037200052F8341010988847054688E05B4B1B68B8
:1037300053F83420DDE91001904705467FE0574FEC
:103740003F6857F8343010A807C89847054676E018
:10375000DFF848C1DCF800C05CF8347010A80FC86E
:10376000B84705466BE01498DFF830C10090DCF8EC
:1037700000C05CF8347010A80FC8B84705465EE07A
:10378000DDE91401DFF814C1CDE90001DCF800C067
:103790005CF8347010A80FC8B84705464FE0DDE963
:1037A00014121698DFF8F4C0CDE900120290DCF88C
:1037B00000C05CF8347010A80FC8B84705463EE05A
:1037C000DDE91423DDE91610DFF8D0C0CDE90023D0
:1037D000CDE90210DCF800C05CF8347010A80FC806
:1037E000B84705462BE0DDE91523DDE91710CDE9E3
:1037F0000123CDE903101498DFF8A0C00090DCF895
:1038000000C05CF8347010A80FC8B847054616E031
:10381000DDE91623DDE91810CDE90223CDE9041016
:10382000DDE91401DFF874C0CDE90001DCF800C067
:103830005CF8347010A80FC8B847054600BF00BF39
:1038400000F056FA9DF8180001280CD11348C07DED
:1038500020B929461BA0FCF745FD07E029461BA01F
:10386000FCF740FD02E018A0FCF73CFD0B4890F887
:10387000EC0088B10948D0F8F0000A21B0FBF1F261
:1038800001FB12070548D0F8F000B0FBF1F83A460A
:10389000414611A0FCF726FD00BFCBE658000020F2
:1038A0000D0A257328000000256300002573000021
:1038B000256C640030582558000000002C000000E2
:1038C000290000003D256C753B0D0A003D30582550
:1038D000583B0D0A0000000046756E6374696F6EF8
:1038E0002052756E2054696D653A25642E25316429
:1038F0006D730D0A00000000F0B503461546002068
:103900000022002600245BE01F782C2F01D104B98F
:1039100001221F78292F01D01F780FB904B950E078
:10392000002E3AD11F78302F02DB1F78392F17DD98
:103930001F782D2F14D01F782B2F11D01F78612FB7
:1039400002DB1F78662F0BDD1F78412F02DB1F780B
:10395000462F05DD1F78582F02D01F78782F0CD105
:1039600002B12EE01F78612F03DB1F78203F0F701C
:1039700001E01F780F70491C1FE01F78222F04D12F
:1039800002B11EE00126012417E01F78202F14D079
:103990001F782C2F11D0FF2613E01F78222F00D183
:1039A000002402B10DE044B11F785C2F02D15B1CF2
:1039B000471CF8B21F780F70491C471CF8B25B1CFB
:1039C000A2E700BF00270F702E70F0BD10B50446AF
:1039D000002010700BE020780870641C491C1078DF
:1039E000401C10701078984201DB012010BD207837
:1039F000202802D020780028EDD10020087000BFD8
:103A0000F4E700002DE9FF4F85B080468946002786
:103A1000002004900390012002904FF0000B00253D
:103A200044461DE02078202816D005F07F000528A8
:103A300012DA0DB945F0800505F07F00042803D1A6
:103A400020782A2800D00EE0207805F07F010DF8BC
:103A50000100681CC5B202E0852D00D103E0641CA2
:103A600020780028DED100BF8DB1002005F07F0155
:103A70000DF8010051A1684600F082FA18B9002142
:103A80000898017002E001210898017000254FF0AC
:103A9000000A444614E0641C0AF1010000F0FF0A29
:103AA0002078202802D020782A2809D1204600F04A
:103AB000D9F90646282E03D02A2E01D0CDF810A021
:103AC0002078282802D020780028E4D144460498A1
:103AD00010B10498401C04444FF0000A002654E042
:103AE000207810B94FF0010A50E02078282803D13F
:103AF00016B9781CC7B213E02078292808D13EB93E
:103B000017B1781EC7B201E04FF0010A47B93DE096
:103B10002078222804D10EB9012000E000200646BA
:103B200047B9207820282FD0207889F8000009F1A3
:103B3000010929E020782C2804D101200290681C7A
:103B4000C5B214E02078202811D0207828280ED083
:103B50004DB9BBF1050F06DA20780DF80B000BF11B
:103B6000010000F0FF0B0298401CC0B20290012F30
:103B70000AD10298022807D10298401CC0B20290D4
:103B80000398401CC0B20390641CA9E700BF0398CF
:103B9000012809D100200DF80B0008A1684600F0AB
:103BA000EFF908B9002003900799039808700020E6
:103BB00089F80000504609B0BDE8F08F766F69645F
:103BC000000000002DE9F043B5B005460F46002483
:103BD000002604E000213D488155701CC6B20A2E23
:103BE000F8DB06E06D1C287818B9012035B0BDE877
:103BF000F08328782828F5D16D1C61E034AA694645
:103C00002846FFF779FE064635449DF8D00020B1DE
:103C1000012827D0FF284CD149E09DF8000000B3CF
:103C200033A9684600F029F906460EB10220DDE707
:103C3000204600F04DF825490A31339A0A50A1F187
:103C40002400008B0121A140884320491A390883B0
:103C500004211E480155601CC4B20A2C01DD03205A
:103C6000C4E726E0684600F0A7F9401C00F0FF0812
:103C7000204600F02DF815490A3100EB01094946AC
:103C8000684600F08EF911481A38018B0120A040D7
:103C9000014388B20D491A3908830C4800F80480A2
:103CA000601CC4B20A2C01DD03209FE701E0022062
:103CB0009CE700BF2878292801D0287800B900E0C7
:103CC0009CE700BF3C70002090E7000072000020DD
:103CD00002460020002105E0044B5B5C0344D8B29F
:103CE0004B1CD9B29142F7DB7047000072000020F4
:103CF0000E480068006900F0010040B10C48D0F89F
:103D0000F0004FF6FF7108440949C1F8F000084877
:103D1000D0F8F00005490968496A08440449C1F827
:103D2000F0000846D0F8F000704700006C02002058
:103D30005800002010B5044604EBC40000EB04104A
:103D40000122C2EB800081B24FF47A70FEF7A8FE28
:103D500001200149C87510BD5800002010B5024669
:103D6000012000E050430B1EA1F10104E1B2F9D1A2
:103D700010BD00006FF0010009490968086100BF2B
:103D8000000C07490968C86201460548C16000BFC8
:103D900000200349096848620249C1F8F0007047F1
:103DA0006C0200205800002070B51D48008800F407
:103DB0000040002833D01A4805780020194948559A
:103DC000194881681748884704461CB91649C868CD
:103DD000804721E0134800F0FBF80546012D00D094
:103DE0002C46CCB1012C06D0022C08D0032C0AD0D2
:103DF000042C10D10BE00DA0FCF774FA0BE00EA020
:103E0000FCF770FA07E00FA0FCF76CFA03E010A0D3
:103E1000FCF768FA00BF00BF00200149088070BDB0
:103E2000100000206401002058000020BAAFCAFD35
:103E3000B4EDCEF3210D0A00B2CECAFDB4EDCEF33F
:103E4000210D0A00B2CECAFDCCABB6E0210D0A00AE
:103E5000CEB4D5D2B5BDC6A5C5E4B5C4BAAFCAFD0A
:103E6000210D0A000146491C00E0491C0878202861
:103E700001D10029F9D1087870472DE9F04F0546A6
:103E80000F4600264FF00A09B3462C460020386042
:103E900034E02078392802DC2078302811DA2878BC
:103EA0002D2802D028782B2800D156B1207846281A
:103EB00002DC2078412804DA2078582817D1012E16
:103EC00015D12078412801DB4FF0100928782D28E2
:103ED00003D14FF0020B6D1C0FE028782B2803D183
:103EE0004FF0010B6D1C08E0701CC6B205E0207895
:103EF00000B904E00120BDE8F08F641CC9E700BFF1
:103F00002C46B9F1100F0FD1032E01DA0220F2E78F
:103F10002078302806D16078582803D1A41CB01E20
:103F2000C6B204E00320E6E70EB90420E3E71BE095
:103F30000EB1701EC6B22078392806DC20783028F1
:103F400003DB2078A0F1300A02E02078A0F1370AE4
:103F500031464846FFF702FF39680AFB0010386017
:103F6000641C207800B900E0E2E700BFBBF1020F5B
:103F700004D13868C0F10008C7F800800020BAE713
:103F800002460AE010780B78984201D00120704771
:103F9000107800B902E0521C491CF3E700BF002072
:103FA000F5E706E002780A70027802B902E0401CE8
:103FB000491CF7E700BF70470146002005E00A787A
:103FC00002B903E0421CD0B2491CF8E700BF7047B9
:103FD00010B58CB004461E230BAA03A92046FFF798
:103FE000F5FC0090009810B101200CB010BD9DF8B8
:103FF0002C00044400200B900EE040489DF82C203B
:1040000050F8221003A8FFF7BBFF00B908E09DF8A5
:104010002C00401CC0B20B909DF82C000728ECD35C
:1040200000BF9DF82C00072863D2DFE800F00405EC
:104030003C5E6564630000BF31A0FCF753F931A01A
:10404000FCF750F93FA0FCF74DF94EA0FCF74AF9F8
:104050005CA0FCF747F96BA0FCF744F979A0FCF7EA
:1040600041F987A0FCF73EF98CA0FCF73BF994A03E
:10407000FCF738F998A0FCF735F99DA0FCF732F968
:10408000A2A0FCF72FF9A8A0FCF72CF9B4A0FCF72C
:1040900029F9C1A0FCF726F9CCA0FCF723F9D8A098
:1040A000FCF720F9A2E216A0FCF71CF9E4A0FCF74B
:1040B00019F900200B900EE0F14800689DF82C20C3
:1040C00000EBC2004168EFA0FCF70CF99DF82C0052
:1040D000401CC0B20B90EA48007D9DF82C1088422D
:1040E000EADC07A0FCF7FEF880E205A0FCF7FAF88E
:1040F000CCE179E24DE221E2F4E100001C00002075
:104100000D0A00002D2D2D2D2D2D2D2D2D2D2D2D7C
:104110002D2D2D2D2D2D2D2D2D2D2D2D55534D414D
:1041200052542056332E332D2D2D2D2D2D2D2D2D4A
:104130002D2D2D2D2D2D2D2D2D2D2D2D2D2D2D20BC
:104140000D0A00002020202055534D415254CAC76B
:10415000D3C9414C49454E54454BBFAAB7A2B5C43B
:10416000D2BBB8F6C1E9C7C9B5C4B4AEBFDAB5F7BA
:10417000CAD4BBA5BDBBD7E9BCFE2CCDA8B9FD20D8
:104180000D0A0000CBFC2CC4E3BFC9D2D4CDA8B922
:10419000FDB4AEBFDAD6FACAD6B5F7D3C3B3CCD026
:1041A000F2C0EFC3E6B5C4C8CEBACEBAAFCAFD2CD2
:1041B000B2A2D6B4D0D02ED2F2B4CB2CC4E3BFC9B5
:1041C0000D0A0000D2D4CBE6D2E2B8FCB8C4BAAF34
:1041D000CAFDB5C4CAE4C8EBB2CECAFD28D6A7B39F
:1041E000D6CAFDD7D62831302F3136BDF8D6C62CE9
:1041F000D6A7B3D6B8BACAFD29A1A2D7D6B7FBB401
:10420000AE0D0A00A1A2BAAFCAFDC8EBBFDAB5D89D
:10421000D6B7B5C8D7F7CEAAB2CECAFD292CB5A558
:10422000B8F6BAAFCAFDD7EEB6E0D6A7B3D63130EE
:10423000B8F6CAE4C8EBB2CECAFD2CB2A2D6A7B378
:10424000D60D0A00BAAFCAFDB7B5BBD8D6B5CFD424
:10425000CABE2ED6A7B3D6B2CECAFDCFD4CABEBD73
:10426000F8D6C6C9E8D6C3B9A6C4DC2CD6A7B3D63F
:10427000BDF8D6C6D7AABBBBB9A6C4DC2E0D0A00B2
:10428000BCBCCAF5D6A7B3D63A7777772E6F7065E0
:104290006E6564762E636F6D0D0A000055534D41B7
:1042A0005254D3D037B8F6CFB5CDB3C3FCC1EE2846
:1042B000B1D8D0EBD0A1D0B4293A0D0A000000004B
:1042C0003F3A202020202020BBF1C8A1B0EFD6FA31
:1042D000D0C5CFA20D0A000068656C703A2020207E
:1042E000BBF1C8A1B0EFD6FAD0C5CFA20D0A00002D
:1042F0006C6973743A202020BFC9D3C3B5C4BAAF68
:10430000CAFDC1D0B1ED0D0A0A00000069643A206F
:1043100020202020BFC9D3C3BAAFCAFDB5C44944C9
:10432000C1D0B1ED0D0A0A006865783A202020203E
:10433000B2CECAFD3136BDF8D6C6CFD4CABE2CBA6D
:10434000F3B8FABFD5B8F12BCAFDD7D6BCB4D6B4F2
:10435000D0D0BDF8D6C6D7AABBBB0D0A0A00000054
:104360006465633A20202020B2CECAFD3130BDF80A
:10437000D6C6CFD4CABE2CBAF3B8FABFD5B8F12B83
:10438000CAFDD7D6BCB4D6B4D0D0BDF8D6C6D7AA4D
:10439000BBBB0D0A0A00000072756E74696D653A48
:1043A000312CBFAAC6F4BAAFCAFDD4CBD0D0BCC69C
:1043B000CAB13B302CB9D8B1D5BAAFCAFDD4CBD035
:1043C000D0BCC6CAB13B0D0A0A000000C7EBB0B4AE
:1043D000D5D5B3CCD0F2B1E0D0B4B8F1CABDCAE4FF
:1043E000C8EBBAAFCAFDC3FBBCB0B2CECAFDB2A225
:1043F000D2D4BBD8B3B5BCFCBDE1CAF82E0D0A00BF
:104400002D2D2D2D2D2D2D2D2D2D2D2D2D2D2D2DDC
:104410002D2D2D2D2D2D2D2D2D2D414C49454E541D
:10442000454B2D2D2D2D2D2D2D2D2D2D2D2D2D2D86
:104430002D2D2D2D2D2D2D2D2D2D2D200D0A000056
:104440002D2D2D2D2D2D2D2D2D2D2D2D2D2D2D2D9C
:104450002D2D2D2D2D2D2D2D2DBAAFCAFDC7E5B536
:10446000A52D2D2D2D2D2D2D2D2D2D2D2D2D2D2D04
:104470002D2D2D2D2D2D2D2D2D2D2D2D200D0A00E9
:104480005800002025730D0A0000000059A0FBF71A
:1044900029FF00200B901AE0664909689DF82C203E
:1044A00001EBC20101AB02AA486803A9FFF7AAFA0F
:1044B000604800689DF82C1050F8312003A95EA0D8
:1044C000FBF710FF9DF82C00401CC0B20B90594820
:1044D000007D9DF82C108842DEDCAFF2DC30FBF76B
:1044E00001FF83E0AFF2E830FBF7FCFE0BAA03A963
:1044F0002046FFF701FA9DF82C00C8B9694603A8C9
:10450000FFF7BBFC0B909DF82C0020B94FA0009941
:10451000FBF7E8FE0EE09DF82C00042801D00220F5
:1045200063E54DA0FBF7DEFE01204249C87501E0BE
:1045300002205AE547A0FBF7D5FE57E045A0FBF760
:10454000D1FE0BAA03A92046FFF7D6F99DF82C004F
:10455000C8B9694603A8FFF790FC0B909DF82C00A2
:1045600020B942A00099FBF7BDFE0EE09DF82C009B
:10457000042801D0022038E53FA0FBF7B3FE00205D
:104580002C49C87501E002202FE532A0FBF7AAFEF6
:104590002CE030A0FBF7A6FE0BAA03A92046FFF7EC
:1045A000ABF99DF82C00C8B9694603A8FFF765FC74
:1045B0000B909DF82C0078B91E49009881F8EC000A
:1045C000084690F8EC0018B130A0FBF78BFE07E02E
:1045D00035A0FBF787FE03E0022006E5022004E594
:1045E0001CA0FBF77FFE01E00120FEE400BF0020DD
:1045F000FBE400002D2D2D2D2D2D2D2D2D2D2D2DC0
:104600002D2D2D2D2D2D2D2D2D2D2D2D2DBAAFCA2E
:10461000FD204944202D2D2D2D2D2D2D2D2D2D2DE1
:104620002D2D2D2D2D2D2D2D2D2D2D2D2D2D2D2DBA
:10463000200D0A005800002025732069642069734A
:104640003A0D0A3058253038580D0A004845583A76
:10465000305825580D0A00003136BDF8D6C6B2CE06
:10466000CAFDCFD4CABE210D0A0000004445433A1A
:10467000256C750D0A0000003130BDF8D6C6B2CEEB
:10468000CAFDCFD4CABE210D0A00000052756E20AB
:1046900054696D652043616C63756C6174696F6EFC
:1046A000204F4E0D0A00000052756E2054696D6552
:1046B0002043616C63756C6174696F6E204F464670
:1046C0000D0A00000160704710B500290AD0087873
:1046D000002807D005487844FCF76AFB002801D081
:1046E000002010BD0248784410BD0000B602000052
:1046F000AE0200000808A0F500114FEA3101704732
:1047000043004FEAD30C4FEA3C0C43401FBF400725
:104710000CF1605113F0FE4F70471CF0006F03D195
:1047200000200CF0004170470CF0004343EA507049
:1047300010B540EACC0000F00EF800BF0000009277
:104740004FEA0001FFF7D6BF4FF000414FF00000E5
:10475000A1F5002170470EF1020E2EF0030E5EF857
:10476000044B244204D44FEA4102B2F17F4F11D8E6
:104770004FEA4003B3F17F4F0CD80ED14FEAD07C03
:10478000B2F17F4F0CEB4C0C0CF1020C08BF4CEB60
:10479000D17C04E04FF0080C01E04FEAD17C0CEB37
:1047A0004C0324FA03F404F00704B4F1040C06D219
:1047B0000EEB840CBDE810404CF0010C6047DFE8C4
:1047C0000CF0070802024FF00040A0F5800010BD79
:1047D0000846420018BFD2F1807288BF00F0004046
:1047E00010BD4FF04070E1EE100A7047FCF738B88A
:1047F0000000000000000000010203040607080991
:104800000000000001020304303132333435363702
:104810003839414243444546403058003031323304
:104820003435363738396162636465664030780004
:104830000400000800000000000000020001000069
:104840001000000002400000000000A00000000076
:1048500005400000000000C8000000000C400000FF
:104860000000409C00000000194000000020BCBE79
:104870000000000034400000BFC91B8E000000048F
:10488000B5400000504BCFD06607E2CF01000000DA
:104890006C4100003E8251AADFEEA7340100000007
:1048A000D9420000DCB5A0E23A301F97FFFFFFFFBE
:1048B000B4450000FD25A0C8E9A3C14FFFFFFFFFDD
:1048C000FF3F00000000008000000000FF3F0000EC
:1048D00000000080000000003F00000064656300ED
:1048E0006964000072756E74696D650068656C704E
:1048F000000000006C6973740000000068657800B7
:10490000766F69642077726974655F616464722888
:1049100075333220616464722C7533322076616C99
:104920002900000075333220726561645F61646440
:10493000722875333220616464722900766F69646D
:104940002064656C61795F6D7328753136206E6DFA
:1049500073290000766F69642064656C61795F7506
:104960007328753332206E7573290000A84900083A
:10497000000000204C010000C4010008004A0008AB
:104980004C010020BC070000200200081C000000B1
:1049900043000000F8FFFFFF0C0000000E000000C5
:1049A0000F0000002E00000011031124F4100B234F
:1049B000DB793E33330342D8481B08EC041AF40475
:1049C0001AE0041AFC041ADC041AE4041335351442
:1049D0000824491408C546120819081379331B081E
:1049E0003C081A91081A540822381420353D1B0837
:1049F00075281325361B08A90C220402DC010000CF
:040000050800018965
:00000001FF
